:100000000C9465000C948D000C948D000C948D0064
:100010000C948D000C948D000C948D000C948D002C
:100020000C948D000C948D000C948D000C94850321
:100030000C948D000C94BF020C948D000C948D00D8
:100040000C9442040C948D000C9411060C948D00B9
:100050000C948D000C948D000C948D000C948D00EC
:100060000C948D000C948D000000000024002700EB
:100070002A0000000000250028002B0000000000DE
:1000800023002600290004040404040404040202DA
:100090000202020203030303030301020408102007
:1000A0004080010204081020010204081020000012
:1000B0000007000201000003040600000000000029
:1000C00000004702AB020D07400211241FBECFEF14
:1000D000D8E0DEBFCDBF11E0A0E0B1E0E6E6F0E1A0
:1000E00002C005900D92A831B107D9F712E0A8E13E
:1000F000B1E001C01D92AF3FB107E1F710E0C8ECDD
:10010000D0E004C02297FE010E94EB07C23CD10759
:10011000C9F70E9447070C9426080C940000A0E041
:10012000B0E0E5E9F0E00C94F707EC01A880B980B5
:10013000CA80DB80A114B104C104D10441F484E27B
:10014000A82E89EDB82E8BE5C82E87E0D82EC601E3
:10015000B5012DE133EF41E050E00E94CE0727EAE0
:1001600031E440E050E00E948D077B018C01C60124
:10017000B5012DE133EF41E050E00E94CE07CA0106
:10018000B9012CEE34EF4FEF5FEF0E948D076E0D3B
:100190007F1D801F911F97FF04C0615070408040F9
:1001A0009048688379838A839B839B01AC015F7746
:1001B000B901CA01CDB7DEB7EAE00C9413080E947A
:1001C0008F00089580E091E00E948F000895609371
:1001D000000170930101809302019093030108953F
:1001E0000895EF92FF920F931F93FC01162FF42EA8
:1001F000E22E0083118280E090E0A0E0B0E08283F4
:100200009383A483B58386839783A087B18762870E
:1002100073874487558726873787862F61E00E943A
:1002200040058F2D61E00E9440058E2D61E00E9407
:100230004005812F60E00E9466058F2D60E00E94DE
:1002400066058E2D60E00E9466051F910F91FF905C
:10025000EF900895EF92FF920F93CF93DF93EC010D
:100260007B018130910509F005C18FEF6F3F780761
:1002700009F000C180E090E0A8ECB2EC809393011B
:1002800090939401A0939501B093960188E191E039
:1002900062E070E00E94B8028CE191E063E070E0FF
:1002A00044E050E025E030E001E00E94F1008CE203
:1002B00091E06BE070E04AE050E029E030E00E941D
:1002C000F10010923D0110923C01D0933F01C09388
:1002D0003E0125E020934001F0926001E0925F0131
:1002E0008DE292EBA6E6B1E4809341019093420146
:1002F000A0934301B093440184E299EBACEDBFE3DA
:100300008093450190934601A0934701B093480123
:1003100080E090E0A0EAB1E48093490190934A0123
:10032000A0934B01B0934C0184EB98ECA1E9B1E4AC
:1003300080934D0190934E01A0934F01B0935001D3
:1003400083E49CE1ADEAB0E48093510190935201C3
:10035000A0935301B093540180E090E0ACE8B2E484
:100360008093550190935601A0935701B093580183
:100370008EEF91E090935A018093590189EB90E0C0
:1003800090935C0180935B0185E690E090935E0121
:1003900080935D01D0936201C0936101209363015A
:1003A000F0928301E092820186EE9FE3A8ECB0E434
:1003B0008093640190936501A0936601B0936701F7
:1003C0008FE29DEDACEEBFE38093680190936901ED
:1003D000A0936A01B0936B0180E090E0A0E2B1E4E9
:1003E00080936C0190936D01A0936E01B0936F01A7
:1003F0008AEA92E8ACE0B1E48093700190937101D5
:10040000A0937201B09373018AE191E5A2ECB0E48C
:100410008093740190937501A0937601B093770156
:1004200080E090E0ACE0B2E48093780190937901B1
:10043000A0937A01B0937B0183E092E090937D01D9
:1004400080937C0187EA90E090937F0180937E0106
:100450008AE590E0909381018093800184E891E0A7
:100460000E94670389E891E00E9467038EE891E0AB
:100470000E946703DF91CF910F91FF90EF90089555
:1004800080E090E06FEF7FEF0E942A01089581E005
:1004900090E06FEF7FEF0E942A0108950F931F9362
:1004A000182F062F61E00E944005812F602F0E94C7
:1004B00066051F910F9108958CEE92E040E052EC9A
:1004C00061E070E00E9442068EE060E00E9440051C
:1004D0008FE060E00E94400580E160E00E944005FE
:1004E00081E160E00E94400582E160E00E944005F9
:1004F00083E160E00E94400580E00E941E050E94AA
:10050000850786E090E0909385018093840187E0E1
:1005100090E090938A018093890188E090E0909325
:100520008F0180938E0108950E945C028DE060E04F
:100530000E944E0268EE73E080E090E00E948A0420
:100540008DE061E00E944E0268EE73E080E090E092
:100550000E948A04EBCF80E090E0A8ECB2EC80939C
:10056000970190939801A0939901B0939A010895EF
:10057000FC01138260939B0110929D0108951F92CC
:100580000F920FB60F9211242F933F934F935F93C7
:100590006F937F938F939F93AF93BF93EF93FF934B
:1005A00081EA9FEF909385008093840080919B0166
:1005B0000E94BE05482F80919E0190919F01019657
:1005C00090939F0180939E01809138028C3418F0A3
:1005D00085E080939C0180919C018330D1F0843030
:1005E00020F4823009F059C006C0843071F18530A2
:1005F00009F053C04CC0442309F04FC080919E01C4
:1006000090919F018436910508F443C010923802FE
:100610001EC0413009F041C080913802E82FF0E05F
:1006200020919E0130919F01EE0FFF1FE556FE4F76
:10063000368325838F5F8093380210929F0110923A
:100640009E0184E080939C0128C04423B9F48091EA
:100650003802E82FF0E020919E0130919F01EE0FCB
:10066000FF1FE556FE4F368325838F5F8093380248
:1006700010929F0110929E0183E0E4CF80919E0131
:1006800090919F018536910540F085E0DBCF4423B2
:1006900021F410929F0110929E0180919D01882368
:1006A00029F0442311F42D9A01C02D98FF91EF9168
:1006B000BF91AF919F918F917F916F915F914F917A
:1006C0003F912F910F900FBE0F901F901895FC0136
:1006D0008FEF9FEF91838083809139028C3090F46B
:1006E00082838F5F80933902815090E0FC01EE0F8E
:1006F000FF1FE80FF91FE65CFD4F88EB9BE092833C
:10070000818308958FEF828308951F920F920FB611
:100710000F9211242F933F934F935F936F937F9387
:100720008F939F93AF93BF93EF93FF9380915E025C
:1007300087FF05C010928500109284002BC0209185
:100740005E02332727FD30958091390290E028170B
:10075000390704F580915E02992787FD9095FC0189
:10076000EE0FFF1FE80FF91FE65CFD4F808186FF4B
:1007700011C080915E02992787FD9095FC01EE0FD4
:10078000FF1FE80FF91FE65CFD4F80818F7360E06B
:100790000E94660580915E028F5F80935E022091C9
:1007A0005E02332727FD30958091390290E02817AB
:1007B00039070CF04EC080915E028C300CF049C0BD
:1007C000209184003091850080915E02992787FDF9
:1007D0009095FC01EE0FFF1FE80FF91FE65CFD4F3F
:1007E00081819281280F391F3093890020938800DE
:1007F00080915E02992787FD9095FC01EE0FFF1F07
:10080000E80FF91FE65CFD4F808186FF2AC08091CA
:100810005E02992787FD9095FC01EE0FFF1FE80F00
:10082000F91FE65CFD4F80818F7361E00E946605D1
:1008300018C080E49CE905C08091840090918500F7
:10084000049690938900809388008FEF80935E02D6
:1008500008C0809184009091850084549C4948F39D
:10086000EBCFFF91EF91BF91AF919F918F917F91CE
:100870006F915F914F913F912F910F900FBE0F900D
:100880001F9018951F920F920FB60F9211242F935D
:100890003F938F939F93AF93BF9380916302909107
:1008A0006402A0916502B0916602309167020196E0
:1008B000A11DB11D232F2D5F2D3720F02D5701963F
:1008C000A11DB11D2093670280936302909364027F
:1008D000A0936502B093660280915F0290916002DE
:1008E000A0916102B09162020196A11DB11D809399
:1008F0005F0290936002A0936102B0936202BF9185
:10090000AF919F918F913F912F910F900FBE0F90BC
:100910001F9018959B01AC017FB7F89480915F02FE
:1009200090916002A0916102B091620266B5A89BAD
:1009300005C06F3F19F00196A11DB11D7FBFBA2FF1
:10094000A92F982F8827860F911DA11DB11D62E048
:10095000880F991FAA1FBB1F6A95D1F7BC012DC034
:10096000FFB7F89480915F0290916002A0916102BC
:10097000B0916202E6B5A89B05C0EF3F19F0019661
:10098000A11DB11DFFBFBA2FA92F982F88278E0F49
:10099000911DA11DB11DE2E0880F991FAA1FBB1F69
:1009A000EA95D1F7861B970B885E9340C8F22150D9
:1009B00030404040504068517C4F21153105410581
:1009C000510571F60895789484B5826084BD84B52C
:1009D000816084BD85B5826085BD85B5816085BD3A
:1009E000EEE6F0E0808181608083E1E8F0E0108253
:1009F000808182608083808181608083E0E8F0E094
:100A0000808181608083E1EBF0E08081846080837D
:100A1000E0EBF0E0808181608083EAE7F0E08081B4
:100A20008460808380818260808380818160808314
:100A30008081806880831092C1000895982F8E3045
:100A400008F09E509770809104018295880F880F5E
:100A5000807C892B80937C0080917A0080648093D5
:100A60007A0080917A0086FDFCCF20917800409139
:100A70007900942F80E030E0282B392BC9010895AC
:100A8000482F50E0CA0186569F4FFC0124914A57D7
:100A90005F4FFA0184918823C1F0E82FF0E0EE0F58
:100AA000FF1FE859FF4FA591B491662341F49FB70A
:100AB000F8948C91209582238C939FBF08959FB7C3
:100AC000F8948C91822B8C939FBF0895482F50E00F
:100AD000CA0182559F4FFC012491CA0186569F4F3F
:100AE000FC0134914A575F4FFA019491992309F41C
:100AF00044C0222351F1233071F0243028F42130F6
:100B0000A1F0223011F514C02630B1F02730C1F029
:100B10002430D9F404C0809180008F7703C0809185
:100B200080008F7D8093800010C084B58F7702C0D5
:100B300084B58F7D84BD09C08091B0008F7703C0DC
:100B40008091B0008F7D8093B000E92FF0E0EE0F30
:100B5000FF1FEE58FF4FA591B491662341F49FB754
:100B6000F8948C91309583238C939FBF08959FB701
:100B7000F8948C91832B8C939FBF0895682F70E01D
:100B8000CB0182559F4FFC012491CB0186569F4F8C
:100B9000FC0144916A577F4FFB019491992319F40A
:100BA00020E030E03CC0222351F1233071F02430AA
:100BB00028F42130A1F0223011F514C02630B1F014
:100BC0002730C1F02430D9F404C0809180008F77A1
:100BD00003C0809180008F7D8093800010C084B519
:100BE0008F7702C084B58F7D84BD09C08091B0002D
:100BF0008F7703C08091B0008F7D8093B000892FE4
:100C000090E0880F991F84589F4FFC01A591B491E3
:100C10008C9120E030E0842311F021E030E0C90124
:100C200008951F920F920FB60F9211242F933F93A6
:100C30004F938F939F93EF93FF934091C600E09162
:100C4000E802F091E90231969F012F7730703197D9
:100C50008091EA029091EB022817390739F0E859A0
:100C6000FD4F40833093E9022093E802FF91EF911A
:100C70009F918F914F913F912F910F900FBE0F90A9
:100C80001F901895CF93DF93EC019A01AB01E88593
:100C9000F985203081EE380780E0480780E058076A
:100CA00009F449C081E090E00A8802C0880F991FCA
:100CB0000A94E2F7808360E079E08DE390E00E949F
:100CC000CE072150304040405040CA01B90122E0D7
:100CD00030E040E050E00E94CE07EC81FD8130839F
:100CE000EE81FF812083EA85FB85208141E050E091
:100CF000CA010E8402C0880F991F0A94E2F7282BBC
:100D00002083EA85FB852081CA010F8402C0880FF9
:100D1000991F0A94E2F7282B2083EA85FB858081BE
:100D2000088802C0440F551F0A94E2F7842B808381
:100D3000DF91CF910895108220E130E0CECFDC0129
:100D40001296ED91FC911397E058FF4F219131914C
:100D500080819181281B390B2F773070C90108954C
:100D6000DC011296ED91FC911397EE57FF4F208115
:100D7000318192918291E058F0408217930719F4E3
:100D80002FEF3FEF05C0E20FF31F8081282F30E0E7
:100D9000C9010895DC011296ED91FC911397DF01D2
:100DA000AE57BF4F2D913C911197E058FF4F808176
:100DB0009181E058F0408217930719F42FEF3FEF2D
:100DC0000BC0E20FF31F80812F5F3F4F2F773070F2
:100DD0002D933C93282F30E0C9010895DC01129631
:100DE000ED91FC911397EE57FF4F80819181929383
:100DF00082930895FC01A085B18521898C9190E0B2
:100E0000022E02C0959587950A94E2F780FFF6CFEF
:100E10000484F585E02D6083089589E091E0909346
:100E2000ED028093EC0288E692E09093EF028093CB
:100E3000EE0285EC90E09093F1028093F00284EC56
:100E400090E09093F3028093F20280EC90E0909314
:100E5000F5028093F40281EC90E09093F702809386
:100E6000F60286EC90E09093F9028093F80284E019
:100E70008093FA0283E08093FB0287E08093FC0278
:100E800085E08093FD0281E08093FE0208950E9438
:100E9000E3040E9494020E94F000FDCF0F931F9381
:100EA000CF93DF938C01EB0109C02196D801ED911E
:100EB000FC910190F081E02DC801099568816623BD
:100EC000A1F7DF91CF911F910F910895EF92FF92BB
:100ED0000F931F93CF93DF938C017B01EA010CC02A
:100EE000D7016D917D01D801ED91FC910190F081C8
:100EF000E02DC80109952197209791F7DF91CF91B7
:100F00001F910F91FF90EF900895009729F0BC0179
:100F100080E090E00E94E7000895629FD001739FF7
:100F2000F001829FE00DF11D649FE00DF11D929F85
:100F3000F00D839FF00D749FF00D659FF00D9927C4
:100F4000729FB00DE11DF91F639FB00DE11DF91FE8
:100F5000BD01CF0111240895A1E21A2EAA1BBB1BCB
:100F6000FD010DC0AA1FBB1FEE1FFF1FA217B30775
:100F7000E407F50720F0A21BB30BE40BF50B661F8B
:100F8000771F881F991F1A9469F76095709580954F
:100F900090959B01AC01BD01CF01089597FB092EEF
:100FA00005260ED057FD04D0D7DF0AD0001C38F438
:100FB00050954095309521953F4F4F4F5F4F089585
:100FC000F6F790958095709561957F4F8F4F9F4F65
:100FD0000895EE0FFF1F0590F491E02D09942F92D4
:100FE0003F924F925F926F927F928F929F92AF92B9
:100FF000BF92CF92DF92EF92FF920F931F93CF9306
:10100000DF93CDB7DEB7CA1BDB0B0FB6F894DEBF9C
:101010000FBECDBF09942A88398848885F846E84C2
:101020007D848C849B84AA84B984C884DF80EE800C
:10103000FD800C811B81AA81B981CE0FD11D0FB615
:10104000F894DEBF0FBECDBFED01089510E0C8ECEF
:10105000D0E004C0FE010E94EB072296CA3CD107F3
:06106000C9F7F894FFCF70
:10106600010000000100000000FA064E0766079F17
:0810760006CA06B006EE0600F2
:00000001FF
